:040000008A110D282C
:10000800FE000308F1000408F2000A08F3008A1150
:10001800372F8A15A42D00308A000408840A820725
:100028000034FC346034DA34F2346634B634BE3426
:10003800E034FE34F6340034FC346034DA34F2341C
:100048006634B634BE34E034FE34F63400348A15EF
:1000580026258A118A11DB278A118A1535258A11E6
:100068008A15EA258A118A1573258A118A15152693
:100078008A118A1122258A118A11F3278A110630DA
:1000880083125202031CA928F701F901D201831631
:100098002008D33A031DA9280D3021020318A928E6
:1000A8002108A43E840083130008D83A031DA92818
:1000B8008C12220883120317AA00AB01AB00AA0115
:1000C80083160313230883120317AA070318AB0A1E
:1000D80083160313240883120317AE002B08093A6A
:1000E8002A04031981282E0803134D0603198128B1
:1000F80003172E08FF3A031DA628831603132108A9
:10010800053E8312C8000317AE01031348080317FE
:100118002E020318A3282E08A03E8400000803130B
:10012800C50003172E08CF3E84000313450880003E
:1001380003172E08A03E84008001AE0A8928031305
:10014800C901C90A831603138C1683120317A80161
:10015800A301A4010313490B282A4808CD3E8400B3
:1001680083130008C5004808CC3E84000008031724
:10017800AD00031345080317AC0003134808FD3E00
:10018800A300CF308A1191278A1124080317A100F0
:10019800031323080317A00021082D06031DD628E2
:1001A80020082C06031D262A8316031351088312E0
:1001B8000317AA00AB01AB00AA0183160313520868
:1001C80083120317AA070318AB0A122A1030031365
:1001D8004802031C262A04300317AE0083160313B3
:1001E800530883120317AC00AD01AD00AC01AE0A91
:1001F8002E08CF3E84000008AC070318AD0AAE0AEB
:1002080064300313A000A10103172D080313A300F2
:1002180003172C080313A2008A11F5268A11210856
:100228000317AD00031320080317AC0000302D029C
:100238000D3003192C02031C262A2E08CF3E8400F9
:100248000D3000020318262A2E08D03E84002030E4
:1002580000020318262A2E08D13E84001830000216
:100268000318262A2E08D23E84003C3000020318C8
:10027800262A2E08D33E84003C3000020318262A82
:100288002C0883160313B400831203172E08CF3EDD
:100298008400000883160313B30083120317AE0A01
:1002A8002E08CF3E8400000883160313B200831281
:1002B8000317AE0A2E08CF3E8400000883160313E6
:1002C800B50083120317AE0A2E08CF3E840000083B
:1002D80083160313B60083120317AE0A2E08CF3E07
:1002E8008400000883160313B700B708031D9D296F
:1002F80034088312E300831633088312E20083165E
:1003080032088312E100831635088312DD00831654
:1003180036088312DE00831637088312DF008E0149
:100328008F01CE01CB01CB0AD001D00A0317A3015C
:10033800A30A83120313CC01262A083003134802A8
:10034800031C262A83160E2A0317A801A80A262AA0
:10035800083003134802031C262A83165308831205
:100368004D06031DBA290317A801A80A0313101084
:100378008B130B13262A0A3003134802031C9A2BEB
:1003880005300317AE0083160313540BDF298312BD
:100398000317AE0A2E08CF3E840009300002031866
:1003A800DD292E08CF3E8400000883160313B80009
:1003B8000C2AA40A0C2A5408023A031DEE298312B7
:1003C8000317AE0A2E08CF3E840009300002031836
:1003D800DD29052A5408FF3A031D0C2A8312031746
:1003E800AE0A2E08CF3E8400093000020318DD292A
:1003F8002E08CF3E8400000883160313B80083122A
:1004080003172E08CF3E8400000883160313B90093
:1004180083160313530883124D06242A2B08093A1E
:10042800031D262A2A08003A0319EA28013A031963
:10043800A129083A0319AC29143A0319BF293E3AED
:100448000319A8290313C901031728080319F52A52
:10045800AE01D33083160313BB0083120317AE0A11
:100468002E08A500AE0A2B08A7002A08A600A60A8F
:100478000319A70A2E08BB3E8400270883138000AF
:10048800AE0A2E08BB3E840026088000AE0A2E085D
:10049800BB3E840003134D0880000317AE0A932A5D
:1004A80003134B08031703195E2A2E08BB3E84006A
:1004B8008001632A2E08BB3E840008308000AE0A03
:1004C8002E08BB3E8400203080002E08BB3E8400EE
:1004D8000016782A2E08BB3E84008001AE0A2E083A
:1004E800BB3E840009308000AE0AA72A2E08BB3E16
:1004F80084008001800AAE0A031310108B130B13BB
:10050800A72A240803198D2A2E08BB3E84008001DF
:10051800782A2E08BB3E84008001800A782A2B089E
:10052800093A031DA72A2A08013A0319542A083A46
:1005380003197A2A103A0319852A043A0319852AD5
:100548003E3A03196E2A03172508BB3E8400250886
:100558002E02FF3E80002E080313A300BB308A1131
:1005680091278A1124080317AD00031323080317E2
:10057800AC002E08BB3E84002D088000AE0A2E0871
:10058800BB3E84002C088000AE0A2E08BB3E8400C7
:10059800D8308000AE0A031306140000000083124E
:1005A8000317A9012E0829020318E52A2908BB3ECA
:1005B8008400831300088A151F258A110317A90AC6
:1005C800D62A0000000083160313981CE72A83121A
:1005D8000610F52A8A11D2258A118A1597278A11B9
:1005E800FA2A03172308013A0319EE2A03135108BC
:1005F8000319512B5F0803190A2B6208A40061082C
:10060800A50063088A1552278A11E000D103D0019A
:10061800D00A78304C02031C132BCB01142BCC0AC4
:100628004F08023A031D1D2B60308A116A268A1171
:10063800232B4F0B232B60308A119E268A115D30A5
:100648008A154C258A118312CF005D08033A031DD1
:10065800452B5E081A3A031D452B5F080D3A031D0A
:10066800452B10108B130B130230C7000330C60044
:10067800BA30C500C50B3E2BC60B3E2BC70B3E2B15
:10068800442B5F080A3A031D502B5E080A3A031DE3
:10069800502B8A1515268A11640083120313500BF8
:1006A8004328D001CB0803195F185C2BCA015E2BC5
:1006B800CA01CA0A6430F4005E088A1167258A11E3
:1006C800D9000A30F40059088A1167258A11D9001F
:1006D8000A30F6006430F4005E088A1167258A1132
:1006E8008A1107258A11DA006430F4005D088A113E
:1006F80067258A110317A2000A30F40022088A111C
:1007080067258A11DB000A30F6006430F4005D08C2
:100718008A1167258A118A1107258A11DC008A1136
:100728009C238A118A1145248A1143288A110D288D
:100738000130D306B02B8312D501D50ACD2B8312F5
:10074800D501CD2B0230AD2B0330AD2B0430AD2BB2
:1007580005308312D500CD2B83163808003A0319CB
:10076800A32B013A0319A32B033A0319A62B013A29
:100778000319A32B073A0319A32B013A0319A82B32
:10078800033A0319AA2B013A03199F2B0F3A0319AD
:10079800AC2B3C3083125F020318342C3C305E02D1
:1007A8000318342C18305D02031C2C2C342CB60191
:1007B8000A30F4005F0867258A11B000B60A3608C7
:1007C800303E84000A30F6005F0807258A1183133B
:1007D80055268A11F4005E0867258A1155268A1164
:1007E800F6005E0807258A1155268A11F4005D086F
:1007F80067258A1155268A11F6005D0807258A1192
:100808008000B60A3608A4004A0866268A1184259C
:100818008A11382CB6013608303E840054088313F8
:100828008000B60A06303602031C0F2C0930540229
:10083800031C212CD401D501222CD40A3608A4008B
:10084800530866268A1184258A11382CD501382C3C
:100858005508003A0319DB2B013A03190E2C2A2CF0
:100868005B268A11D2258A11B601F501F601F60A2E
:100878000A309A258A11B60A06303602031808008B
:10088800392C0130D6065A2C8312D701D801D80A40
:10089800772C8312D801772C0230572C0330572C31
:1008A8000430572C05308312D800772C831639086A
:1008B800003A03194D2C013A03194D2C033A031938
:1008C800502C013A03194D2C073A03194D2C013AC3
:1008D8000319522C033A0319542C013A0319482CD2
:1008E8000F3A0319562C3C3083125F020318F62C7A
:1008F8003C305E020318F62C18305D02031CEE2C07
:10090800F62C5F080319FA2CB901E008031D8E2C98
:100918000830E0006008B000B90A3908303E8400A9
:100928000A30F400610867258A1183134F268A115B
:10093800F600610807258A114F268A11F40062081B
:1009480067258A114F268A11F600620807258A1141
:100958004F268A11F400630867258A114F268A11E9
:10096800F600630807258A118000B90A3908303E65
:1009780084008001B90A3908303E840002308000C2
:10098800B90A3908A400A5010230A6003030842530
:100998008A11FA2CB9013908303E840057088313AC
:1009A8008000B90A09303902031CCF2C09305702DC
:1009B800031CE12CD701D801E22CD70A3908A4007E
:1009C8005608A5000230A600303084258A11FA2C7A
:1009D800D801FA2C5808003A0319852C013A031952
:1009E800CE2CEC2C5B268A11D2258A11B901F5018F
:1009F8000230F6000A309A258A11B90A09303902FC
:100A080003180800FB2CA300A50176080319202D64
:100A1800A401A40AF61B132D0310F60D0D2D0310C7
:100A2800A50D76082302031C1D2D7608A3022514A4
:100A38000310F60CA40B132D2508080083160710C5
:100A48008712851207118312071583160511851160
:100A580005128710831287148316B801B901643010
:100A6800F40083125E0867258A11D9000A30F40061
:100A7800590867258A11D9000A30F6006430F40055
:100A88005E0867258A1107258A11DA006430F400A8
:100A98005D0867258A11BA000A30F4003A0867250C
:100AA8008A11DB000A30F6006430F4005D0867251F
:100AB8008A1107258A11DC009C238A1159304524A4
:100AC8000711871008000313A0000830A100A20135
:100AD8002008F50007300310F50CFF3E0310031D36
:100AE800702D220D7504A2000310A00D74082202B7
:100AF800031C802D7408A202A10B6C2D220808008B
:100B0800A800A901240829020318982D2508F50032
:100B18002608F60029082807A70084008313000880
:100B28009A258A11A90A862D2608322EA100760B4D
:100B3800A02D2108013EA22D21080C3E84008A1117
:100B48000F208A11A2007508031D2214A301013089
:100B5800A000230AB12D0310A00DFF3E031DAF2DE9
:100B6800200822050319BE2D760BBC2D0714C32DB2
:100B78000515C32D760BC22D0710C32D05110000D6
:100B88000000760BC92D0130CA2D023011268A11BA
:100B9800A30A0830230203180800AB2D03135F08CB
:100BA80001268A11A8005E0801268A11A9005D089D
:100BB80001268A11AA00600801268A11AB00610883
:100BC80001268A11AC00620801268A11AD0063086B
:100BD8000126AE00AF012F08283E840083130008C9
:100BE800F6002F088A15F6258A1183120313AF0A17
:100BF80007302F0203180800EF2DA7000A30F6006F
:100C0800270807258A11A600260EF039A6000A3003
:100C1800F4002708672526070800F400740B182E2F
:100C28008312031387121B2E8312031385110000EE
:100C38000000740B232E831203138716262E8312AB
:100C48000313851500000000740B2E2E8312031366
:100C5800871208008312031385110800F400740B2F
:100C6800372E8512382E051200000000740B402E16
:100C7800831203138516432E8312031305160000EF
:100C88000000740B4B2E8312031385120800831285
:100C98000313051208008000B90A3908303E8400A1
:100CA8000A348000B60A3608303E84000A34E3016C
:100CB800E30AE201E20AE101E10AE001DD01DE0105
:100CC800DF010800A500A601A60A3034F6002C278B
:100CD8008A11031D7A2E760819278A11D9268A11B6
:100CE800003A03197A2E1D308316E2007608013E79
:100CF8008400000B992E7608023E8400000B8C2E8F
:100D08007608023E84000C3080007608033E8E2E62
:100D18007608023E8400800376082527F5007608C9
:100D2800013E84007508800008007608013E8400B2
:100D380080030800F6002C278A11031DB02E7608C0
:100D480019278A11D9268A11003A0319AD2E1D30A8
:100D5800AE2E1C308316E200760825278A11F5008E
:100D68007608013E8400750800027608031CD52E1B
:100D7800013E84008001800A7608023E84000C301F
:100D880000027608031CD12E023E84008001800AEE
:100D98007608033E8400800A0800023E8400800A28
:100DA8000800013E8400800A08009030A00001304D
:100DB800A10032278A11F5268A1121082004031977
:100DC80001346430A000A10132278A11F5268A1166
:100DD80021082004031900342408033903190134B5
:100DE8000034210820040319142FF401F40AA11B6C
:100DF800012F0310A00DA10DFA2E21082302031DB7
:100E0800072F20082202031C102F2008A202210805
:100E1800031CA303A3020310A10CA00CF40B012FC5
:100E28002308A1002208A0000800033E840000084F
:100E3800A400A501D030A4070318A50A0730A50708
:100E48000800023E84000008E03E84000008080014
:100E5800023E840083130008023A08002508A30014
:100E68002408A2000800831203130C1C3D2F5127ED
:100E78008A118C1E442F83168C1E442F68278A11D2
:100E880083128C1C482F812773088A0072088400FB
:100E980071088300FE0E7E0E09000C1003304E020E
:100EA800031C662FCE0100000000000000000000B7
:100EB800000000007630831203138E002F308F005D
:100EC800D10A0800CE0A080083121A08F000981CFC
:100ED800702F1812181608001130790203187C2F89
:100EE8007908A03E8400700883138000F90A7D2FDA
:100EF800F901F701F70AD20108008C1077080319E5
:100F0800872FD20A892FD201F9010A307802031CEF
:100F18008F2FF8010800F80A0800A700FF30AC007E
:100F2800AD00AA01AB012308A500A60126082B02E3
:100F3800031DA02F25082A020318B42F2D08F50039
:100F48002C08F400270884000008C4278A117508B3
:100F5800AD007408AC00A70AAA0A0319AB0A972FB8
:100F68002C08A8002D08A9002808AC00AD01AD0088
:100F7800AC012908AC042D08A4002C08A300080023
:100F8800A000F406A2017408A1000130A105031015
:100F9800F50CF40CF513210BD52F0130F406A03015
:100FA800F506A20A0830220203180800C72F831288
:100FB8000313DD01DE01DF01E001E00AE101E10ADE
:100FC800E201E20AE301E30AD101CB01CE01CC013F
:100FD800CA01CD01D201F901F701CF010800910141
:100FE8008C109210121012139216121692151215D6
:080FF80083168C14F8010800B7
:101A3E00F40003130C1E202D7408990008008B1758
:101A4E000B178316031788018901080064008001B3
:101A5E00840A04060319003404062E2D8F018E010C
:101A6E000C1090111013901610169010101483165F
:101A7E000C1483120317051685110515851483168C
:101A8E0003138111831206140800F400023E840031
:101A9E003B30831300027408031C6F2D023E84003A
:101AAE0080017408013E84003B3000027408031C60
:101ABE006D2D013E840080017408840017300002F1
:101ACE0074088400031C712D80010134013E702DB9
:101ADE00023E8400800A0034831603130610061794
:101AEE00861786160616061586140514851487178E
:101AFE0007173330990090308312980024308316E4
:101B0E0098008C16981C892D831206109025CD00F6
:101B1E000800F401F401851CF417051C7417861CCB
:101B2E00F416061D7416061EF415861E7415861FF1
:101B3E00F414061F741474080800F701F801F90173
:101B4E0083134830840060308A152D258A15A03005
:101B5E008400E0308A152D258A1503177F30AF00DB
:101B6E00DD30B0001F30B1007E30B200BF30B300A8
:101B7E003E30B4007F30B500DF30B6005E30B700C7
:101B8E009F30B8001E30B9005F30BA0083160313C1
:101B9E00E0011F30E1001C30E2001F30E3001E3078
:101BAE00E4001F30E5001E30E6001F30E700E800BD
:101BBE001E30E9001F30EA001E30EB001F30EC0033
:101BCE0083018A112B28831687118830BA000E30B4
:101BDE00AF268A15A200F600F6130E30F62DA000E1
:101BEE0016278A15D030FA268A15D8268A1583121A
:101BFE0003132008FA268A15D8268A157608FA269F
:101C0E008A15D826831203130712871500000000C9
:101C1E008312031307160000000008000F30AF26D2
:101C2E008A15C300C31F212EC3134308F6000F30BD
:101C3E00F6258A1583120313C40144083C3E840022
:101C4E004408AF268A158313800044082E3E840074
:101C5E004408AF268A15831380004408353E84005D
:101C6E004408AF268A158313800044083C3E840046
:101C7E00000822278A15AD0044083C3E84002D083A
:101C8E00800044082E3E8400000822278A15AD00ED
:101C9E0044082E3E84002D0880004408353E840002
:101CAE00000822278A15AD004408353E84002D0811
:101CBE008000C40A07304402031C242EC4014408C9
:101CCE002E3E84000008AD00F6278A15031D782EDF
:101CDE004408353E84000008AD00F6278A15031926
:101CEE007B2E10108B130B13C40A07304402031CF7
:101CFE00662E8F018E013C08DF003D08DE003E0897
:101D0E00DD004008E1004108E2004208E30041081E
:101D1E00A4004008A500420852278A15E0003C3076
:101D2E005F02031808003C305E02031808001830EA
:101D3E005D020318080020306102031808000D3000
:101D4E006202031808006430630203180800972F1C
:101D5E008312A00016278A15D030FA268A15D826A7
:101D6E008A15831203132008FA268A15D8268A1597
:101D7E0016278A15D130FA268A15D8268A152D27C8
:101D8E008A158312A100A2270712871500000000F2
:101D9E008312031307160000000083120313210899
:101DAE000800C830F40087110716831607160000C6
:101DBE000000831203138715000000008312031323
:101DCE00071EF52EF40BE52E0712871500000000F6
:101DDE008312031307160000000008008316071273
:101DEE00831287110800F400F50183120313871183
:101DFE00F41F032F0716042F07120310F40D000013
:101E0E00000083120313871500000000F50A083046
:101E1E007502031CFC2E8312031387110800831214
:101E2E000313071687150000000083120313071211
:101E3E0000000000FC2FA1000A30F400210E0F3923
:101E4E00AB27A00021080F3920070800FF30F4004F
:101E5E00831203130716071683160716F5010310D0
:101E6E00F40D8312871100000000831203138715EF
:101E7E000000000083120313071E472F7414482F0F
:101E8E007410F50A08307502031C372F871183165C
:101E9E00071274080800AC0024082E3E8400831735
:101EAE000008AA00A60005300310A60CFF3E031D75
:101EBE005B2F2608AB001F30AA05033024022C0826
:101ECE000318732F03390319722F2408023A031DC6
:101EDE00712FAA03AB0A2C08A6000310A60C031040
:101EEE00A60C2C082607AC000730A000A1012B0879
:101EFE002C07A600A701A70D25082607A80000306D
:101F0E00031801302707A9002808023EA20029085D
:101F1E000318013E003EA300B9272008AB000800BD
:101F2E000830DD0718305D02031C08001830DD0292
:101F3E00CF01CF0A0800071600000000831203131A
:101F4E00871500000000FC2FF600F50174087618C6
:101F5E00F5070310F40D0310F60CF608031DAD2F54
:101F6E0075080800F501A31FC32FA209A309A20A31
:101F7E000319A30AF501F50AA11FCA2FA009A10989
:101F8E00A00A0319A10A210820040319E92FF4015C
:101F9E00F40AA11BD62F0310A00DA10DCF2F2108DF
:101FAE002302031DDC2F20082202031CE52F20082C
:101FBE00A2022108031CA303A3020310A10CA00C70
:101FCE00F40BD62F75080319F12FA209A309A20A43
:101FDE000319A30A2308A1002208A0000800440840
:101FEE003C3E840000082D0608008312031387115F
:021FFE000800D9
:02400E003A0373
:00000001FF
